S0290000635F636F64655F64635F6D6F746F725F6F6E5F6F66665F647574795F6379636C652E737265637E
S11300000C9434000C9446000C9446000C94460066
S11300100C9446000C9446000C9446000C94460044
S11300200C9446000C9448000C9446000C94460032
S11300300C9446000C9446000C9446000C94460024
S11300400C9446000C9446000C9446000C94460014
S11300500C9446000C9446000C9446000C94460004
S11300600C9446000C94460011241FBECFEFD8E038
S1130070DEBFCDBF21E0A0E0B1E001C01D92A430FD
S1130080B207E1F70E947B000C946C020C94000010
S11300901F920F920FB60F9211242F938F939F9359
S11300A031991AC0809102019091030121E08227C5
S11300B09093030180930201019719F483E284BDB4
S11300C002C083E084BD8FEF99E628E1815090401F
S11300D02040E1F700C000009F918F912F910F9075
S11300E00FBE0F901F90189580E480937C0085E8E4
S11300F080937A00089580E28AB917B81092B0000C
S113010081E08093B10080937000789493EA94BD69
S113011085BD8CEC88BD0E947400CAE7D0E00F2E28
S1130120F8E7EF2EF12CF02D09E710E088818064C8
S11301308883888184FFFDCF888180618883F7016B
S1130140608170E07093010160930001F801808187
S1130150782B072E000C880B990B0E94730120E06A
S113016030E040E85AE30E94FF0120E030E44CE92B
S113017055E40E94FF0120E030E040E251E40E9497
S1130180C9000E943B01609300017093010168BDA6
S1130190CDCF0E94DD000C94C5010E94BE0158F031
S11301A00E94B70140F029F45F3F29F00C94AE019E
S11301B051110C94F9010C94B4010E94D60168F316
S11301C09923B1F3552391F3951B550BBB27AA270C
S11301D062177307840738F09F5F5F4F220F331F46
S11301E0441FAA1FA9F335D00E2E3AF0E0E832D00E
S11301F091505040E695001CCAF72BD0FE2F29D011
S1130200660F771F881FBB1F261737074807AB07E2
S1130210B0E809F0BB0B802DBF01FF2793585F4F57
S11302203AF09E3F510578F00C94AE010C94F9011C
S11302305F3FE4F3983ED4F3869577956795B79539
S1130240F7959F5FC9F7880F911D9695879597F944
S11302500895E1E0660F771F881FBB1F62177307BD
S11302608407BA0720F0621B730B840BBA0BEE1FD2
S113027088F7E09508950E9442016894B1110C94A6
S1130280F90108950E94DE0188F09F5798F0B92F74
S11302909927B751B0F0E1F0660F771F881F991FB7
S11302A01AF0BA95C9F714C0B13091F00E94F80160
S11302B0B1E008950C94F801672F782F8827B85F70
S11302C039F0B93FCCF3869577956795B395D9F70F
S11302D03EF490958095709561957F4F8F4F9F4F19
S11302E00895E89409C097FB3EF490958095709525
S11302F061957F4F8F4F9F4F9923A9F0F92F96E96E
S1130300BB279395F695879577956795B795F111E2
S1130310F8CFFAF4BB0F11F460FF1BC06F5F7F4F7F
S11303208F4F9F4F16C0882311F096E911C0772391
S113033021F09EE8872F762F05C0662371F096E89A
S1130340862F70E060E02AF09A95660F771F881F69
S1130350DAF7880F9695879597F9089597F99F6727
S113036080E870E060E008959FEF80EC0895002439
S11303700A941616170618060906089500240A9406
S113038012161306140605060895092E0394000C8C
S113039011F4882352F0BB0F40F4BF2B11F460FF1B
S11303A004C06F5F7F4F8F4F9F4F089557FD905844
S11303B0440F551F59F05F3F71F04795880F97FB25
S11303C0991F61F09F3F79F08795089512161306DF
S11303D01406551FF2CF4695F1DF08C0161617060E
S11303E01806991FF1CF8695710561050894089543
S11303F0E894BB2766277727CB0197F908950E94D5
S113040012020C94C5010E94B70138F00E94BE018B
S113041020F0952311F00C94AE010C94B401112436
S11304200C94F9010E94D60170F3959FC1F3950FC6
S113043050E0551F629FF001729FBB27F00DB11D64
S1130440639FAA27F00DB11DAA1F649F6627B00DF4
S1130450A11D661F829F2227B00DA11D621F739FDD
S1130460B00DA11D621F839FA00D611D221F749FEB
S11304703327A00D611D231F849F600D211D822F32
S1130480762F6A2F11249F5750409AF0F1F0882359
S11304904AF0EE0FFF1FBB1F661F771F881F915086
S11304A05040A9F79E3F510580F00C94AE010C9486
S11304B0F9015F3FE4F3983ED4F386957795679509
S11304C0B795F795E7959F5FC1F7FE2B880F911DB0
S10F04D09695879597F90895F894FFCF4E
S9030000FC
