:100000000C9434000C9446000C9446000C9446006A
:100010000C9446000C9446000C9446000C94460048
:100020000C9446000C9446000C9446000C94460038
:100030000C9446000C9446000C9456000C94460018
:100040000C9446000C9446000C9446000C94460018
:100050000C9446000C9446000C9446000C94460008
:100060000C9446000C94460011241FBECFEFD8E03C
:10007000DEBFCDBF21E0A0E0B1E001C01D92A43001
:10008000B207E1F70E947F000C94CF020C940000AD
:1000900082E084BD85E085BD8FEF87BDEEE6F0E0B0
:1000A000808182608083789416BC08951F920F929D
:1000B0000FB60F9211248F939F938091020190911C
:1000C0000301019690930301809302019F918F9108
:1000D0000F900FBE0F901F90189588E08093C1007D
:1000E00086E08093C20087E68093C4000895E0EC28
:1000F000F0E0908195FFFDCF8093C60008950E94A7
:100100006D0085E480937C0085E880937A000E94EE
:100110004800CAE7D0E00F2EF8E78F2E912CF02D83
:100120000F2EF9E7AF2EB12CF02D0F2EF4E6CF2EC7
:10013000D12CF02D0F2EFAE0EF2EF12CF02D88812E
:1001400080648883888184FFFDCF88818061888373
:10015000109201011092000116BC4DC08091020165
:1001600090910301CD970CF44AC0F4016081F50130
:10017000808170E0782B072E000C880B990B0E9471
:10018000AE0120E030E040E85AE30E943A0220E06D
:1001900030E44CE955E40E943A0220E030E040E2CD
:1001A00051E40E9404010E947601CB01B6010E9435
:1001B000A7028C0180E3860F0E947700C801B70177
:1001C0000E94A702182F80E3860F0E94770080E329
:1001D000810F0E9477008DE00E94770080910001DE
:1001E000909101010196909301018093000110927A
:1001F00003011092020120910001309101011216B9
:1002000013060CF0ABCF9BCF0E9418010C94000298
:100210000E94F90158F00E94F20140F029F45F3F7A
:1002200029F00C94E90151110C9434020C94EF0163
:100230000E94110268F39923B1F3552391F3951BA2
:10024000550BBB27AA2762177307840738F09F5FF7
:100250005F4F220F331F441FAA1FA9F335D00E2E64
:100260003AF0E0E832D091505040E695001CCAF7D1
:100270002BD0FE2F29D0660F771F881FBB1F261794
:1002800037074807AB07B0E809F0BB0B802DBF016B
:10029000FF2793585F4F3AF09E3F510578F00C943A
:1002A000E9010C9434025F3FE4F3983ED4F3869561
:1002B00077956795B795F7959F5FC9F7880F911D5B
:1002C0009695879597F90895E1E0660F771F881F47
:1002D000BB1F621773078407BA0720F0621B730BFA
:1002E000840BBA0BEE1F88F7E09508950E947D01FC
:1002F0006894B1110C94340208950E94190288F098
:100300009F5798F0B92F9927B751B0F0E1F0660FD9
:10031000771F881F991F1AF0BA95C9F714C0B1301A
:1003200091F00E943302B1E008950C943302672FDC
:10033000782F8827B85F39F0B93FCCF38695779549
:100340006795B395D9F73EF4909580957095619532
:100350007F4F8F4F9F4F0895E89409C097FB3EF45D
:1003600090958095709561957F4F8F4F9F4F992302
:10037000A9F0F92F96E9BB279395F6958795779580
:100380006795B795F111F8CFFAF4BB0F11F460FF40
:100390001BC06F5F7F4F8F4F9F4F16C0882311F098
:1003A00096E911C0772321F09EE8872F762F05C0AC
:1003B000662371F096E8862F70E060E02AF09A9547
:1003C000660F771F881FDAF7880F9695879597F93C
:1003D000089597F99F6780E870E060E008959FEFC7
:1003E00080EC089500240A941616170618060906CC
:1003F000089500240A94121613061406050608959B
:10040000092E0394000C11F4882352F0BB0F40F422
:10041000BF2B11F460FF04C06F5F7F4F8F4F9F4F62
:10042000089557FD9058440F551F59F05F3F71F0E4
:100430004795880F97FB991F61F09F3F79F087954B
:100440000895121613061406551FF2CF4695F1DFD4
:1004500008C0161617061806991FF1CF8695710564
:10046000610508940895E894BB2766277727CB0198
:1004700097F908950E944D020C9400020E94F20127
:1004800038F00E94F90120F0952311F00C94E90155
:100490000C94EF0111240C9434020E94110270F3A9
:1004A000959FC1F3950F50E0551F629FF001729F19
:1004B000BB27F00DB11D639FAA27F00DB11DAA1F28
:1004C000649F6627B00DA11D661F829F2227B00D75
:1004D000A11D621F739FB00DA11D621F839FA00D00
:1004E000611D221F749F3327A00D611D231F849F50
:1004F000600D211D822F762F6A2F11249F575040A7
:100500009AF0F1F088234AF0EE0FFF1FBB1F661F21
:10051000771F881F91505040A9F79E3F510580F0EA
:100520000C94E9010C9434025F3FE4F3983ED4F359
:10053000869577956795B795F795E7959F5FC1F78E
:10054000FE2B880F911D9695879597F9089597FB37
:10055000072E16F4009407D077FD09D00E94BB0245
:1005600007FC05D03EF4909581959F4F08957095B6
:1005700061957F4F0895AA1BBB1B51E107C0AA1FBD
:10058000BB1FA617B70710F0A61BB70B881F991F34
:100590005A95A9F780959095BC01CD010895F894DE
:0205A000FFCF8B
:00000001FF
