S0210000635F636F64655F325F74696D6572305F6E6F726D5F6D6F64652E7372656346
S11300000C9434000C9446000C9446000C94460066
S11300100C9446000C9446000C9446000C94460044
S11300200C9446000C9446000C9446000C94460034
S11300300C9446000C9446000C9446000C94460024
S11300400C9446000C9446000C9446000C94460014
S11300500C9446000C9446000C9446000C94460004
S11300600C9446000C94460011241FBECFEFD8E038
S1130070DEBFCDBF21E0A0E0B1E001C01D92A230FF
S1130080B207E1F70E9448000C946C000C94000045
S11300908FEF84B987B117B8429A15BC85E085BD46
S11300A04BEF9FEF329B02C095B9FCCF45B916BC0C
S11300B0109201011092000121E030E086B58F3FDB
S11300C0E9F730930101209300012F5F3F4F2F3F49
S10F00D085E1380799F7E6CFF894FFCFDC
S9030000FC
