:100000000C9434000C9446000C9446000C9446006A
:100010000C9446000C9446000C9446000C94460048
:100020000C9446000C9446000C9446000C94460038
:100030000C9446000C9446000C9446000C94460028
:100040000C9446000C9446000C9446000C94460018
:100050000C9446000C9446000C9446000C94460008
:100060000C9446000C94460011241FBECFEFD8E03C
:10007000DEBFCDBF21E0A0E0B1E001C01D92A23003
:10008000B207E1F70E9485000C9443020C94000033
:1000900080E480937C0085E880937A000895EAE705
:1000A000F0E0808180648083808184FFFDCFEAE777
:1000B000F0E08081806180836091780070E07093CF
:1000C00001016093000180917900782B072E000CCC
:1000D000880B990B0E944A0120E030E040E85AE387
:1000E0000E94D60120E030E44CE955E40E94D6019C
:1000F00020E030E040E251E40E94A0000E941201A2
:100100007093010160930001089517B880E68AB9E1
:1001100083E884BD85E085BD0E944800D8E0C2E246
:100120000E944F0080910001909101018F3F910545
:1001300014F0C7BDF5CF893C910594F7D7BDF0CF3A
:100140000E94B4000C949C010E94950158F00E94FA
:100150008E0140F029F45F3F29F00C948501511184
:100160000C94D0010C948B010E94AD0168F399238B
:10017000B1F3552391F3951B550BBB27AA276217A3
:100180007307840738F09F5F5F4F220F331F441FB0
:10019000AA1FA9F335D00E2E3AF0E0E832D09150E4
:1001A0005040E695001CCAF72BD0FE2F29D0660FD1
:1001B000771F881FBB1F261737074807AB07B0E814
:1001C00009F0BB0B802DBF01FF2793585F4F3AF01A
:1001D0009E3F510578F00C9485010C94D0015F3F4F
:1001E000E4F3983ED4F3869577956795B795F795A0
:1001F0009F5FC9F7880F911D9695879597F9089588
:10020000E1E0660F771F881FBB1F62177307840723
:10021000BA0720F0621B730B840BBA0BEE1F88F732
:10022000E09508950E9419016894B1110C94D001D1
:1002300008950E94B50188F09F5798F0B92F99272B
:10024000B751B0F0E1F0660F771F881F991F1AF0C1
:10025000BA95C9F714C0B13091F00E94CF01B1E056
:1002600008950C94CF01672F782F8827B85F39F055
:10027000B93FCCF3869577956795B395D9F73EF45A
:1002800090958095709561957F4F8F4F9F4F089502
:10029000E89409C097FB3EF4909580957095619520
:1002A0007F4F8F4F9F4F9923A9F0F92F96E9BB27D6
:1002B0009395F695879577956795B795F111F8CF52
:1002C000FAF4BB0F11F460FF1BC06F5F7F4F8F4FBD
:1002D0009F4F16C0882311F096E911C0772321F0B3
:1002E0009EE8872F762F05C0662371F096E8862F4B
:1002F00070E060E02AF09A95660F771F881FDAF7A2
:10030000880F9695879597F9089597F99F6780E8E4
:1003100070E060E008959FEF80EC089500240A9457
:100320001616170618060906089500240A941216D0
:100330001306140605060895092E0394000C11F403
:10034000882352F0BB0F40F4BF2B11F460FF04C0B0
:100350006F5F7F4F8F4F9F4F089557FD9058440F09
:10036000551F59F05F3F71F04795880F97FB991F14
:1003700061F09F3F79F087950895121613061406D1
:10038000551FF2CF4695F1DF08C01616170618065E
:10039000991FF1CF86957105610508940895E89439
:1003A000BB2766277727CB0197F908950E94E901BB
:1003B0000C949C010E948E0138F00E94950120F05F
:1003C000952311F00C9485010C948B0111240C944D
:1003D000D0010E94AD0170F3959FC1F3950F50E0DD
:1003E000551F629FF001729FBB27F00DB11D639FE7
:1003F000AA27F00DB11DAA1F649F6627B00DA11D8D
:10040000661F829F2227B00DA11D621F739FB00D32
:10041000A11D621F839FA00D611D221F749F3327A2
:10042000A00D611D231F849F600D211D822F762F3B
:100430006A2F11249F5750409AF0F1F088234AF018
:10044000EE0FFF1FBB1F661F771F881F9150504084
:10045000A9F79E3F510580F00C9485010C94D001C2
:100460005F3FE4F3983ED4F3869577956795B7950B
:10047000F795E7959F5FC1F7FE2B880F911D969525
:0A048000879597F90895F894FFCFCF
:00000001FF
