S022000031635F636F64655F315F74696D6572305F6E6F726D5F6D6F64652E7372656315
S11300000C9434000C9446000C9446000C94460066
S11300100C9446000C9446000C9446000C94460044
S11300200C9446000C9446000C9446000C94460034
S11300300C9446000C9446000C9446000C94460024
S11300400C9446000C9446000C9446000C94460014
S11300500C9446000C9446000C9446000C94460004
S11300600C9446000C94460011241FBECFEFD8E038
S1130070DEBFCDBF21E0A0E0B1E001C01D92A230FF
S1130080B207E1F70E9448000C947C000C94000035
S11300908FEF84B915BC85E085BD4BEF9FEF45B963
S11300A016BC109201011092000121E030E086B5E7
S11300B08F3FE9F730930101209300012F5F3F4FF9
S11300C0293285E0380799F70EC086B58F3FE9F7E6
S11300D030930101209300012F5F3F4F213887E0C7
S11300E0380799F7DCCF95B916BC1092010110922C
S10F00F0000121E030E0E9CFF894FFCFDC
S9030000FC
