S0280000635F636F64655F52465F74656D70657261747572655F73657269616C327573622E7372656340
S11300000C9434000C94E6020C9451000C945100AE
S11300100C9451000C9451000C9451000C94510018
S11300200C9451000C9451000C9451000C94510008
S11300300C9451000C9451000C9451000C945100F8
S11300400C9451000C9451000C9451000C945100E8
S11300500C9451000C9451000C9451000C945100D8
S11300600C9451000C94510011241FBECFEFD8E022
S1130070DEBFCDBF12E0A0E0B1E0E2E7F2E102C0F2
S113008005900D92AE37B107D9F722E0AEE7B2E0A2
S113009001C01D92A93AB207E1F70E949E030C9495
S11300A037090C940000CF93C82F8A3019F48DE0DF
S11300B00E945300E0ECF0E0808185FFFDCFC09307
S11300C0C60080E090E0CF910895E0ECF0E08081FC
S11300D08823ECF78091C60090E00895249884B1B9
S11300E0886284B980E58CBD8DB581608DBD08952D
S11300F08EBD0DB407FEFDCF08958EBD0DB407FE71
S1130100FDCF8EB50895DF92EF92FF920F931F9368
S1130110CF93DF937B018A012A980E947D00D82E19
S11301200115110551F0E7010E0D1F1D88810E9474
S11301307D008993C017D107C9F72A9A8D2DDF91C5
S1130140CF911F910F91FF90EF90DF9008958062FF
S11301500E94830008950F931F93CF93DF931F9200
S1130160CDB7DEB7F894E9E6F0E080818260808361
S1130170E89A7894219A229A2A9A29980E946E00E1
S11301802FEF81EE94E0215080409040E1F700C0D1
S113019000000FE30093A20241E050E062EA72E043
S11301A080E00E94A7001092A20241E050E062EABF
S11301B072E081E00E94A70080EF8093A20241E0F8
S11301C050E062EA72E084E00E94A7001092A2026A
S11301D041E050E062EA72E082E00E94A70082E718
S11301E08093A20241E050E062EA72E085E00E945E
S11301F0A7008EE08093A20241E050E062EA72E040
S113020086E00E94A70010E71093A20241E050E0AC
S113021062EA72E087E00E94A7000093A20241E034
S113022050E062EA72E08CE10E94A70084E08093CF
S1130230A20241E050E062EA72E08DE10E94A70070
S1130240198340E050E060E070E082EE0E94A70075
S113025040E050E060E070E081EE0E94A70045E0DD
S113026050E061E271E08AE00E94A70045E050E0BE
S11302706CE171E080E10E94A70041E050E0BE0122
S11302806F5F7F4F82E00E94A7008981816089832C
S113029041E050E0BE016F5F7F4F82E00E94A70003
S11302A00F90DF91CF911F910F9108950E948300C9
S11302B008951F93CF93DF931F92CDB7DEB7182F06
S11302C041E050E0BE016F5F7F4F80E00E94560125
S11302D0133071F128F4113059F01230E9F05EC096
S11302E0153009F447C0D0F1163009F445C056C0A2
S11302F0898181FD53C082608093A20241E050E075
S113030062EA72E080E00E94A7008FE39FE1019718
S1130310F1F700C0000042C089818D7F8093A20262
S113032041E050E062EA72E080E00E94A70036C03B
S1130330898181608093A20241E050E062EA72E028
S113034080E00E94A70080E78093A20241E050E091
S113035062EA72E087E00E94A70020C089818E7F54
S11303608093A20241E050E062EA72E080E00E94E1
S1130370A70014C0299812C089818E7F8093A2029D
S113038041E050E062EA72E080E00E94A700299A0E
S113039087E592E00197F1F700C000000F90DF912C
S11303A0CF911F91089583E00E945901299A87E50E
S11303B092E00197F1F700C000000895CF92DF9218
S11303C0EF92FF920F931F93CF93DF93CDB7DEB7D6
S11303D0A0970FB6F894DEBF0FBECDBF6C01689432
S11303E0FF24F5F8CE010196FC012F2D11922A95D8
S11303F0E9F7B6010E94E205F60101900020E9F751
S113040031978F010C191D0984E00E94590140E0C5
S113041050E060E070E082EE0E94A70040E050E00F
S113042060E070E081EE0E94A700F092A20241E039
S113043050E062EA72E087E00E94A70041E050E0E9
S113044062EA72E080E00E9456018091A202806418
S11304508093A20241E050E062EA72E080E00E94F0
S1130460A7002A9880EB0E947800EFEFE00F0023AA
S113047081F08601EE2EF12CF70131967601EE0E15
S1130480FF1EF80181918F010E9478000E151F054F
S1130490C1F780E00E9478002A9A299AF0E5FA953B
S11304A0F1F7299841E050E062EA72E087E00E94A7
S11304B056018091A20285FD0BC041E050E062EA42
S11304C072E087E00E9456018091A20285FFF5CF79
S11304D0CE0101969F938F9386E291E09F938F9331
S11304E00E94190641E050E062EA72E080E00E9456
S11304F056018091A2028F7B8093A20241E050E0DA
S113050062EA72E080E00E94A7000E94D3010F908B
S11305100F900F900F9081E0A0960FB6F894DEBF75
S11305200FBECDBFDF91CF911F910F91FF90EF9040
S1130530DF90CF90089580E2EEE7F2E0DF011D92B4
S11305408A95E9F741E050E062EA72E080E60E94B1
S113055056014091A202442341F050E04F5F5F4FA7
S11305606EE772E081E60E94830080917E02882318
S113057069F080E48093A20241E050E062EA72E014
S113058087E00E94A7008EE792E0089580E48093BC
S1130590A20241E050E062EA72E087E00E94A70014
S11305A088E391E008951092C50087E68093C40023
S11305B088E18093C100E3EAF2E08EE091E0938366
S11305C0828380E091E09183808308951F920F924B
S11305D00FB60F9211248F9381E08093A1028F9123
S11305E00F900FBE0F901F901895CF93DF931F921B
S11305F0CDB7DEB78FE391E00E942F068DE691E040
S11306000E942F0641E050E0BE016F5F7F4F80E003
S11306100E94560189811F928F9389E991E09F93EB
S11306208F930E94190641E050E0BE016F5F7F4F37
S113063081E00E94560189811F928F9387EA91E09D
S11306409F938F930E94190641E050E0BE016F5FB3
S11306507F4F82E00E94560189811F928F9385EB20
S113066091E09F938F930E94190641E050E0BE01F0
S11306706F5F7F4F84E00E94560189811F928F93A0
S113068086EC91E09F938F930E94190641E050E01D
S1130690BE016F5F7F4F85E00E94560189811F92E2
S11306A08F9388ED91E09F938F930E94190641E008
S11306B050E0BE016F5F7F4F86E00E945601898142
S11306C01F928F9386EE91E09F938F930E94190659
S11306D041E050E0BE016F5F7F4F87E00E9456010A
S11306E089811F928F9386EF91E09F938F930E944D
S11306F0190641E050E0BE016F5F7F4F8DE10E941B
S1130700560189811F928F9384E092E09F938F9387
S11307100E9419060FB6F894DEBF0FBECDBF83E169
S113072092E00E942F060F90DF91CF91089580E40C
S113073080937C0085E880937A000895CF93DF93BB
S1130740CDB7DEB7A5970FB6F894DEBF0FBECDBF09
S11307500E9497038DE0E0E4F2E0DE01119601903F
S11307600D928A95E1F70E94D3020E94AB000E9489
S1130770F5020E94D301CE0101960E94DE010AE730
S113078010E00F2EF8E7CF2ED12CF02D0F2EF9E725
S1130790EF2EF12CF02D0F2EFDE4AF2EF2E0BF2E44
S11307A0F02D99249394F801808180648083F8016A
S11307B0808184FFFCCF808180618083F601608129
S11307C070E070939F0260939E02F7018081782B02
S11307D0072E000C880B990B0E94E90420E030E0FE
S11307E040E85AE30E94750520E030E44CE955E402
S11307F00E94750520E030E040E251E40E943F048D
S11308000E94B104DC01CB0190939F0280939E026D
S11308104AE050E0BE016F5D7F4F0E94E905809180
S1130820A102882309F4BFCF1092A1020E949B0267
S11308309F938F93BF92AF920E941906FFEF29E610
S113084088E1F15020408040E1F700C00000CE0173
S113085081960E94DE01992D0F900F900F900F90BA
S1130860811101C090E09093A0028091A00288239E
S113087009F499CF83E692E00E942F0694CF0E9458
S113088053040C943B050E94340558F00E942D0536
S113089040F029F45F3F29F00C94240551110C9485
S11308A06F050C942A050E944C0568F39923B1F353
S11308B0552391F3951B550BBB27AA276217730782
S11308C0840738F09F5F5F4F220F331F441FAA1F16
S11308D0A9F335D00E2E3AF0E0E832D091505040D2
S11308E0E695001CCAF72BD0FE2F29D0660F771F80
S11308F0881FBB1F261737074807AB07B0E809F066
S1130900BB0B802DBF01FF2793585F4F3AF09E3FEA
S1130910510578F00C9424050C946F055F3FE4F3C3
S1130920983ED4F3869577956795B795F7959F5F2D
S1130930C9F7880F911D9695879597F90895E1E079
S1130940660F771F881FBB1F621773078407BA07D8
S113095020F0621B730B840BBA0BEE1F88F7E09533
S113096008950E94B8046894B1110C946F05089519
S11309700E94540588F09F5798F0B92F9927B751D2
S1130980B0F0E1F0660F771F881F991F1AF0BA952F
S1130990C9F714C0B13091F00E946E05B1E008951A
S11309A00C946E05672F782F8827B85F39F0B93F0C
S11309B0CCF3869577956795B395D9F73EF49095E2
S11309C08095709561957F4F8F4F9F4F0895E89460
S11309D009C097FB3EF490958095709561957F4F83
S11309E08F4F9F4F9923A9F0F92F96E9BB27939531
S11309F0F695879577956795B795F111F8CFFAF441
S1130A00BB0F11F460FF1BC06F5F7F4F8F4F9F4F71
S1130A1016C0882311F096E911C0772321F09EE8CF
S1130A20872F762F05C0662371F096E8862F70E035
S1130A3060E02AF09A95660F771F881FDAF7880F0F
S1130A409695879597F9089597F99F6780E870E0E0
S1130A5060E008959FEF80EC089500240A94161630
S1130A60170618060906089500240A941216130698
S1130A70140605060895092E0394000C11F4882326
S1130A8052F0BB0F40F4BF2B11F460FF04C06F5F42
S1130A907F4F8F4F9F4F089557FD9058440F551F18
S1130AA059F05F3F71F04795880F97FB991F61F0EC
S1130AB09F3F79F087950895121613061406551F63
S1130AC0F2CF4695F1DF08C0161617061806991FCF
S1130AD0F1CF86957105610508940895E894BB27C4
S1130AE066277727CB0197F908950E9488050C940F
S1130AF03B050E942D0538F00E94340520F0952313
S1130B0011F00C9424050C942A0511240C946F05FF
S1130B100E944C0570F3959FC1F3950F50E0551F4B
S1130B20629FF001729FBB27F00DB11D639FAA273E
S1130B30F00DB11DAA1F649F6627B00DA11D661F8D
S1130B40829F2227B00DA11D621F739FB00DA11DAE
S1130B50621F839FA00D611D221F749F3327A00D68
S1130B60611D231F849F600D211D822F762F6A2F04
S1130B7011249F5750409AF0F1F088234AF0EE0F69
S1130B80FF1FBB1F661F771F881F91505040A9F796
S1130B909E3F510580F00C9424050C946F055F3F33
S1130BA0E4F3983ED4F3869577956795B795F795D2
S1130BB0E7959F5FC1F7FE2B880F911D969587954A
S1130BC097F90895FB01DC0101900D920020E1F7F3
S1130BD008954532510520F4423010F00C94F40588
S1130BE0FB011082CB010895BB274A3031F49923CD
S1130BF022F4BDE2909581959F4F0C940006BB278B
S1130C00FB015527AA27880F991FAA1FA41710F0C4
S1130C10A41B83955051B9F7A05DAA3308F0A95DD0
S1130C20A193009779F7B111B1931192CB010C9470
S1130C305608A0E0B0E0EFE1F6E00C941009AE0134
S1130C404B5F5F4FFA0161917191AF018091A502F1
S1130C509091A6020E945F06E2E00C942C090F9387
S1130C601F93CF93DF93E091A502F091A602238115
S1130C7021FF1BC08C01D0E0C0E0F80181918F01FD
S1130C806091A5027091A602DB011896ED91FC918A
S1130C901997882331F00995892B79F3DFEFCFEF8A
S1130CA0ECCF8AE00995892B19F08FEF9FEF02C0F2
S1130CB08D2F9C2FDF91CF911F910F910895ABE061
S1130CC0B0E0E5E6F6E00C9400096C017B018A01D2
S1130CD0FC0117821682838181FFCCC1CE0101966B
S1130CE03C01F6019381F70193FD859193FF819176
S1130CF07F01882309F4BAC1853239F493FD8591C3
S1130D0093FF81917F01853229F4B60190E00E941E
S1130D106608E7CF912C212C312CFFE1F315D8F094
S1130D208B3279F038F4803279F08332A1F4232DB8
S1130D3020611DC08D3261F0803369F4232D216060
S1130D4016C0832D8260382EE32DE4603E2E2AC027
S1130D50F32DF8601DC037FC2DC020ED280F2A307C
S1130D6040F08E32B9F436FC81C1232D2064322E3A
S1130D7019C036FE06C08AE0989E200D1124922EDA
S1130D8011C0EAE02E9E200D1124222EF32DF062D4
S1130D903F2E08C08C3621F4832D8068382E02C083
S1130DA0883641F4F70193FD859193FF81917F018A
S1130DB08111B3CF982F9F7D9554933028F40C5F05
S1130DC01F4F9FE399830DC0833631F0833771F051
S1130DD0833509F059C021C0F801808189830E5FF1
S1130DE01F4F88248394912C530113C02801F2E0EF
S1130DF04F0E511CF801A080B18036FE03C0692D4E
S1130E0070E002C06FEF7FEFC5010E944B084C01F8
S1130E108201F32DFF773F2E16C0280122E0420EF7
S1130E20511CF801A080B18036FE03C0692D70E02A
S1130E3002C06FEF7FEFC5010E9440084C01F32D03
S1130E40F0683F2E820133FC1BC0822D90E088168F
S1130E509906B0F4B60180E290E00E9466082A94F4
S1130E60F4CFF50137FC859137FE81915F01B6011E
S1130E7090E00E94660821102A9421E0821A9108C9
S1130E808114910471F7E8C0843611F0893641F574
S1130E90F80137FE07C060817181828193810C5F04
S1130EA01F4F08C060817181072E000C880B990BBD
S1130EB00E5F1F4FF32DFF763F2E97FF09C09095CD
S1130EC08095709561957F4F8F4F9F4FF0683F2EAF
S1130ED02AE030E0A3010E94A208882E861845C0AB
S1130EE0853731F4232D2F7EB22E2AE030E025C041
S1130EF0932D997FB92E8F36C1F018F4883579F087
S1130F00B5C0803719F0883721F0B0C0E92FE0610F
S1130F10BE2EB4FE0DC0FB2DF460BF2E09C034FEFE
S1130F200AC0292F2660B22E06C028E030E005C092
S1130F3020E130E002C020E132E0F801B7FE07C052
S1130F4060817181828193810C5F1F4F06C0608133
S1130F50718180E090E00E5F1F4FA3010E94A20800
S1130F60882E8618FB2DFF773F2E36FE0DC0232DCD
S1130F702E7FA22E891458F434FE0BC032FC09C013
S1130F80832D8E7EA82E05C0B82CA32C03C0B82CAC
S1130F9001C0B92CA4FE0FC0FE01E80DF11D808133
S1130FA0803321F49A2D997EA92E09C0A2FE06C091
S1130FB0B394B39404C08A2D867809F0B394A3FC47
S1130FC011C0A0FE06C0B21488F4280C922C9B1801
S1130FD00EC0B21460F4B60180E290E00E9466088C
S1130FE0B394F7CFB21418F42B1802C0982C212C08
S1130FF0A4FE10C0B60180E390E00E946608A2FE41
S113100017C0A1FC03C088E790E002C088E590E027
S1131010B6010CC08A2D867859F0A1FE02C08BE27D
S113102001C080E2A7FC8DE2B60190E00E94660850
S1131030891438F4B60180E390E00E9466089A941B
S1131040F7CF8A94F301E80DF11D8081B60190E099
S11310500E9466088110F5CF222009F442CEB60121
S113106080E290E00E9466082A94F6CFF601868119
S1131070978102C08FEF9FEF2B96E2E10C941C093D
S1131080FC010590615070400110D8F7809590954F
S11310908E0F9F1F0895FC01615070400190011054
S11310A0D8F7809590958E0F9F1F0895DC01FC0161
S11310B0672F71917723E1F7329704C07C916D9388
S11310C070836291AE17BF07C8F308950F931F93FF
S11310D0CF93DF93FB01238121FD03C08FEF9FEFAB
S11310E02CC022FF16C046815781248135814217C6
S11310F0530744F4A081B1819D012F5F3F4F318399
S113110020838C93268137812F5F3F4F378326833B
S113111014C08B01EC01FB010084F185E02D0995DD
S1131120892BE1F6D80116968D919C91179701961B
S113113017969C938E931697CE01DF91CF911F91B2
S11311400F910895FA01AA27283051F1203181F135
S1131150E8946F936E7F6E5F7F4F8F4F9F4FAF4FBB
S1131160B1E03ED0B4E03CD0670F781F891F9A1FCE
S1131170A11D680F791F8A1F911DA11D6A0F711D82
S1131180811D911DA11D20D009F468943F912AE08E
S1131190269F11243019305D3193DEF6CF01089576
S11311A0462F4770405D4193B3E00FD0C9F7F6CFA7
S11311B0462F4F70405D4A3318F0495D31FD40526F
S11311C0419302D0A9F7EACFB4E0A6959795879505
S11311D077956795BA95C9F70097610571050895E4
S11311E09B01AC010A2E0694579547953795279590
S11311F0BA95C9F7620F731F841F951FA01D089528
S11312002F923F924F925F926F927F928F929F9212
S1131210AF92BF92CF92DF92EF92FF920F931F9300
S1131220CF93DF93CDB7DEB7CA1BDB0B0FB6F894B1
S1131230DEBF0FBECDBF09942A88398848885F84F1
S11312406E847D848C849B84AA84B984C884DF8062
S1131250EE80FD800C811B81AA81B981CE0FD11D46
S11312600FB6F894DEBF0FBECDBFED010895F8941C
S1051270FFCFAA
S11312720000000100000000000065000000000002
S1131282000200000000530000000000E7E7E7E767
S1131292E7E7E7E7E7E74D65737361676520736521
S11312A26E743A2025730A006661696C65640053A2
S11312B27461727475702073756363657373667594
S11312C26C0A0A206E524632344C30312B20636F42
S11312D26E666967757265642061733A002D2D2DFF
S11312E22D2D2D2D2D2D2D2D2D2D2D2D2D2D2D2D28
S11312F22D2D2D2D2D2D2D2D2D2D2D2D2D2D2D2D18
S11313022D2D2D2D2D2D2D2D00434F4E46494709B0
S113131209307825780A00454E5F414109090930B0
S11313227825780A00454E5F5258414444520909CF
S1131332307825780A0053455455505F524554522B
S11313420909307825780A0052465F434809090999
S1131352307825780A0052465F534554555009099E
S1131362307825780A00535441545553090930788A
S113137225780A00464541545552450909307825D5
S1131382780A002D2D2D2D2D2D2D2D2D2D2D2D2D8C
S11313922D2D2D2D2D2D2D2D2D2D2D2D2D2D2D2D77
S11313A22D2D2D2D2D2D2D2D2D2D2D2D2D2D0A00B7
S11313B248656C6C6F20576F726C642100526563D0
S11313C26569766564206D6573736167653A202586
S11313D2730A004D6573736167652073656E7420CB
S11113E27375636365737366756C6C790000D4
S9030000FC
