S0180000635F636F6465315F77617665666F726D2E73726563B8
S11300000C9434000C9449000C9449000C9449005D
S11300100C9449000C9449000C9449000C94490038
S11300200C9449000C9449000C9449000C94490028
S11300300C9449000C9449000C9449000C94490018
S11300400C9449000C9449000C9449000C94490008
S11300500C9449000C9449000C9449000C944900F8
S11300600C9449000C94490011241FBECFEFD8E032
S1130070DEBFCDBF11E0A0E0B1E0ECEDF0E002C0E6
S113008005900D92A230B107D9F70E944B000C9451
S11300906C000C94000084E084B941E050E02BEF44
S11300A094E0509301014093000125B93FE76DE3CB
S11300B085E1315060408040E1F700C0000085B127
S11300C0892785B93FEF68E28EE031506040804077
S10F00D0E1F700C00000E5CFF894FFCF7A
S10500DC01001D
S9030000FC
