S0270000635F636F6465325F73776974636865645F4C454470756C73655F315F3235732E737265638E
S11300000C9434000C9451000C9451000C94510045
S11300100C9451000C9451000C9451000C94510018
S11300200C9451000C9451000C9451000C94510008
S11300300C9451000C9451000C9451000C945100F8
S11300400C9451000C9451000C9451000C945100E8
S11300500C9451000C9451000C9451000C945100D8
S11300600C9451000C94510011241FBECFEFD8E022
S1130070DEBFCDBF11E0A0E0B1E0ECEFF0E002C0E4
S113008005900D92A230B107D9F721E0A2E0B1E0CA
S113009001C01D92A430B207E1F70E9453000C94F2
S11300A07C000C94000084E084B917B861E070E02F
S11300B044E050E02BEF94E0709301016093000161
S11300C083B1509303014093020125B93FEF88E0C7
S11300D0EDE331508040E040E1F700C0000085B11D
S11300E0892785B985B1892785B9EFE3FCE931977B
S10F00F0F1F700C00000E0CFF894FFCF4F
S10500FC0100FD
S9030000FC
