S02B0000635F636F64655F315F74696D6572305F696E74657272757074735F6E6F726D5F6D6F64652E737265E1
S11300000C9434000C9451000C9451000C94510045
S11300100C9451000C9451000C9451000C94510018
S11300200C9451000C9451000C9451000C94510008
S11300300C9451000C9451000C9451000C945100F8
S11300400C945E000C9451000C9451000C945100DB
S11300500C9451000C9451000C9451000C945100D8
S11300600C9451000C94510011241FBECFEFD8E022
S1130070DEBFCDBF11E0A0E0B1E0ECE6F1E002C0EC
S113008005900D92A230B107D9F721E0A2E0B1E0CA
S113009001C01D92A630B207E1F70E9475000C94CE
S11300A0B4000C94000015BC85E085BDEEE6F0E0DC
S11300B0808181608083789416BC08951F920F928A
S11300C00FB60F9211248F939F9380910401909106
S11300D00501019690930501809304019F918F91EE
S11300E00F900FBE0F901F9018958FEF84B90E9448
S11300F05300E0E0F1E06FEF808185B910920301D5
S11301001092020116BC40910201509103010CC0EF
S1130110809104019091050142973CF010920501F1
S1130120109204014F5F5F4F9A011216130684F771
S113013065B9109203011092020116BC40910201AC
S1130140509103010CC080910401909105014A97DC
S11301503CF010920501109204014F5F5F4F9A0129
S10F01601216130684F7C8CFF894FFCFE2
S105016CFB0092
S9030000FC
