:100000000C9434000C9446000C9446000C9446006A
:100010000C9446000C9446000C9446000C94460048
:100020000C9446000C9446000C9446000C94460038
:100030000C9446000C9446000C9446000C94460028
:100040000C9446000C9446000C9446000C94460018
:100050000C9446000C9446000C9446000C94460008
:100060000C9446000C94460011241FBECFEFD8E03C
:10007000DEBFCDBF21E0A0E0B1E001C01D92A43001
:10008000B207E1F70E94BF000C94AD020C9400008F
:1000900080E480937C0085E880937A000895EAE705
:1000A000F0E0808180648083808184FFFDCFEAE777
:1000B000F0E08081806180836091780070E07093CF
:1000C00001016093000180917900782B072E000CCC
:1000D000880B990B0E94B40120E030E040E85AE31D
:1000E0000E94400220E030E44CE955E40E944002C6
:1000F00020E030E040E251E40E940A010E947C01CD
:1001000070930101609300016F3F71053CF081EE37
:1001100094E090930301809302010895683C710577
:100120003CF083EC99E090930301809302010895E1
:10013000663971053CF08FE097E29093030180935C
:1001400002010895643671053CF08BE594E49093C8
:100150000301809302010895623371053CF087EA40
:1001600091E690930301809302010895772334F080
:1001700083EF9EE7909303018093020108958CE33F
:1001800084B917B81092800083E0809381000E94A8
:1001900048000F2EF8E2EF2EF02DC4E8D0E00F2E2D
:1001A000F8E1FF2EF02D04E114E2E5B8198218827F
:1001B0002091020130910301888199818217930770
:1001C000D8F3F5B819821882209102013091030109
:1001D0008881998182179307D8F30E944F0005B94F
:1001E000198218822091020130910301888199813E
:1001F00082179307D8F315B919821882209102014A
:10020000309103018881998182179307D8F30E9466
:100210004F00CBCF0E941E010C9406020E94FF01EA
:1002200058F00E94F80140F029F45F3F29F00C9447
:10023000EF0151110C943A020C94F5010E9417023F
:1002400068F39923B1F3552391F3951B550BBB2705
:10025000AA2762177307840738F09F5F5F4F220F4A
:10026000331F441FAA1FA9F335D00E2E3AF0E0E841
:1002700032D091505040E695001CCAF72BD0FE2F8B
:1002800029D0660F771F881FBB1F2617370748071F
:10029000AB07B0E809F0BB0B802DBF01FF279358D7
:1002A0005F4F3AF09E3F510578F00C94EF010C94AB
:1002B0003A025F3FE4F3983ED4F3869577956795CD
:1002C000B795F7959F5FC9F7880F911D969587950C
:1002D00097F90895E1E0660F771F881FBB1F62172B
:1002E00073078407BA0720F0621B730B840BBA0BE9
:1002F000EE1F88F7E09508950E9483016894B1117C
:100300000C943A0208950E941F0288F09F5798F0BB
:10031000B92F9927B751B0F0E1F0660F771F881F0A
:10032000991F1AF0BA95C9F714C0B13091F00E9424
:100330003902B1E008950C943902672F782F88278D
:10034000B85F39F0B93FCCF3869577956795B3954B
:10035000D9F73EF490958095709561957F4F8F4FBA
:100360009F4F0895E89409C097FB3EF490958095BF
:10037000709561957F4F8F4F9F4F9923A9F0F92F6B
:1003800096E9BB279395F695879577956795B795E9
:10039000F111F8CFFAF4BB0F11F460FF1BC06F5FCF
:1003A0007F4F8F4F9F4F16C0882311F096E911C0E1
:1003B000772321F09EE8872F762F05C0662371F002
:1003C00096E8862F70E060E02AF09A95660F771F16
:1003D000881FDAF7880F9695879597F9089597F90A
:1003E0009F6780E870E060E008959FEF80EC0895DB
:1003F00000240A9416161706180609060895002404
:100400000A9412161306140605060895092E03947D
:10041000000C11F4882352F0BB0F40F4BF2B11F4F1
:1004200060FF04C06F5F7F4F8F4F9F4F089557FD50
:100430009058440F551F59F05F3F71F04795880F52
:1004400097FB991F61F09F3F79F0879508951216E9
:1004500013061406551FF2CF4695F1DF08C0161695
:1004600017061806991FF1CF869571056105089446
:100470000895E894BB2766277727CB0197F908955D
:100480000E9453020C9406020E94F80138F00E9468
:10049000FF0120F0952311F00C94EF010C94F5016D
:1004A00011240C943A020E94170270F3959FC1F335
:1004B000950F50E0551F629FF001729FBB27F00D12
:1004C000B11D639FAA27F00DB11DAA1F649F662767
:1004D000B00DA11D661F829F2227B00DA11D621FB6
:1004E000739FB00DA11D621F839FA00D611D221F70
:1004F000749F3327A00D611D231F849F600D211D54
:10050000822F762F6A2F11249F5750409AF0F1F0D6
:1005100088234AF0EE0FFF1FBB1F661F771F881F3F
:1005200091505040A9F79E3F510580F00C94EF0187
:100530000C943A025F3FE4F3983ED4F386957795A6
:100540006795B795F795E7959F5FC1F7FE2B880FE5
:0E055000911D9695879597F90895F894FFCF21
:00000001FF
